{
  "contractName": "ERC721",
  "abi": [
    {
      "inputs": [],
      "stateMutability": "nonpayable",
      "type": "constructor"
    },
    {
      "anonymous": false,
      "inputs": [
        {
          "indexed": true,
          "internalType": "address",
          "name": "_owner",
          "type": "address"
        },
        {
          "indexed": true,
          "internalType": "address",
          "name": "_approved",
          "type": "address"
        },
        {
          "indexed": true,
          "internalType": "uint256",
          "name": "_tokenId",
          "type": "uint256"
        }
      ],
      "name": "Approval",
      "type": "event"
    },
    {
      "anonymous": false,
      "inputs": [
        {
          "indexed": true,
          "internalType": "address",
          "name": "_owner",
          "type": "address"
        },
        {
          "indexed": true,
          "internalType": "address",
          "name": "_operator",
          "type": "address"
        },
        {
          "indexed": false,
          "internalType": "bool",
          "name": "_approved",
          "type": "bool"
        }
      ],
      "name": "ApprovalForAll",
      "type": "event"
    },
    {
      "anonymous": false,
      "inputs": [
        {
          "indexed": true,
          "internalType": "address",
          "name": "_from",
          "type": "address"
        },
        {
          "indexed": true,
          "internalType": "address",
          "name": "_to",
          "type": "address"
        },
        {
          "indexed": true,
          "internalType": "uint256",
          "name": "_tokenId",
          "type": "uint256"
        }
      ],
      "name": "Transfer",
      "type": "event"
    },
    {
      "inputs": [
        {
          "internalType": "bytes4",
          "name": "interfaceId",
          "type": "bytes4"
        }
      ],
      "name": "_registerInterface",
      "outputs": [],
      "stateMutability": "nonpayable",
      "type": "function"
    },
    {
      "inputs": [
        {
          "internalType": "bytes4",
          "name": "interfaceId",
          "type": "bytes4"
        }
      ],
      "name": "supportsInterface",
      "outputs": [
        {
          "internalType": "bool",
          "name": "",
          "type": "bool"
        }
      ],
      "stateMutability": "view",
      "type": "function"
    },
    {
      "inputs": [
        {
          "internalType": "address",
          "name": "_owner",
          "type": "address"
        }
      ],
      "name": "balanceOf",
      "outputs": [
        {
          "internalType": "uint256",
          "name": "",
          "type": "uint256"
        }
      ],
      "stateMutability": "view",
      "type": "function"
    },
    {
      "inputs": [
        {
          "internalType": "uint256",
          "name": "_tokenId",
          "type": "uint256"
        }
      ],
      "name": "ownerOf",
      "outputs": [
        {
          "internalType": "address",
          "name": "",
          "type": "address"
        }
      ],
      "stateMutability": "view",
      "type": "function"
    },
    {
      "inputs": [
        {
          "internalType": "uint256",
          "name": "tokenId",
          "type": "uint256"
        }
      ],
      "name": "exists",
      "outputs": [
        {
          "internalType": "address",
          "name": "",
          "type": "address"
        }
      ],
      "stateMutability": "view",
      "type": "function"
    },
    {
      "inputs": [
        {
          "internalType": "address",
          "name": "_from",
          "type": "address"
        },
        {
          "internalType": "address",
          "name": "_to",
          "type": "address"
        },
        {
          "internalType": "uint256",
          "name": "_tokenId",
          "type": "uint256"
        }
      ],
      "name": "transferFrom",
      "outputs": [],
      "stateMutability": "nonpayable",
      "type": "function"
    }
  ],
  "bytecode": "0x608060405234801561001057600080fd5b506100407f01ffc9a7a5cef8baa21ed3c5c0d7e23accb804b619e9333b597f47a0d84076e26100b860201b60201c565b6100b37f22c82707ba960a14c7592ffb6b8cfaa073fed0048a84cc7fa41f6b5bd8e7f2e47f3a6eb71757dfc6e784c1459d26270140c2c147d95ca985c80026fc5301c3eca17f8a7e378434598edc36d108689a030cbc9d7d465de4f74c71bae1028eed6a881b18186100b860201b60201c565b6101fe565b63ffffffff60e01b817bffffffffffffffffffffffffffffffffffffffffffffffffffffffff19161415610121576040517f08c379a0000000000000000000000000000000000000000000000000000000008152600401610118906101cd565b60405180910390fd5b6001600080837bffffffffffffffffffffffffffffffffffffffffffffffffffffffff19167bffffffffffffffffffffffffffffffffffffffffffffffffffffffff1916815260200190815260200160002060006101000a81548160ff02191690831515021790555050565b600061019a6018836101ed565b91507f45524331363520696e76616c696420696e7465726661636500000000000000006000830152602082019050919050565b600060208201905081810360008301526101e68161018d565b9050919050565b600082825260208201905092915050565b610c6e8061020d6000396000f3fe608060405234801561001057600080fd5b50600436106100625760003560e01c806301ffc9a714610067578063068417d91461009757806323b872dd146100b35780634f558e79146100cf5780636352211e146100ff57806370a082311461012f575b600080fd5b610081600480360381019061007c9190610793565b61015f565b60405161008e91906109df565b60405180910390f35b6100b160048036038101906100ac9190610793565b6101c6565b005b6100cd60048036038101906100c89190610744565b61029b565b005b6100e960048036038101906100e491906107bc565b6102ab565b6040516100f691906109c4565b60405180910390f35b610119600480360381019061011491906107bc565b610330565b60405161012691906109c4565b60405180910390f35b6101496004803603810190610144919061071b565b6103e2565b6040516101569190610a9a565b60405180910390f35b6000806000837bffffffffffffffffffffffffffffffffffffffffffffffffffffffff19167bffffffffffffffffffffffffffffffffffffffffffffffffffffffff1916815260200190815260200160002060009054906101000a900460ff169050919050565b63ffffffff60e01b817bffffffffffffffffffffffffffffffffffffffffffffffffffffffff1916141561022f576040517f08c379a000000000000000000000000000000000000000000000000000000000815260040161022690610a7a565b60405180910390fd5b6001600080837bffffffffffffffffffffffffffffffffffffffffffffffffffffffff19167bffffffffffffffffffffffffffffffffffffffffffffffffffffffff1916815260200190815260200160002060006101000a81548160ff02191690831515021790555050565b6102a683838361049a565b505050565b60006102b68261066a565b6102f5576040517f08c379a00000000000000000000000000000000000000000000000000000000081526004016102ec90610a3a565b60405180910390fd5b6001600083815260200190815260200160002060009054906101000a900473ffffffffffffffffffffffffffffffffffffffff169050919050565b6000806001600084815260200190815260200160002060009054906101000a900473ffffffffffffffffffffffffffffffffffffffff169050600073ffffffffffffffffffffffffffffffffffffffff168173ffffffffffffffffffffffffffffffffffffffff1614156103d9576040517f08c379a00000000000000000000000000000000000000000000000000000000081526004016103d090610a1a565b60405180910390fd5b80915050919050565b60008073ffffffffffffffffffffffffffffffffffffffff168273ffffffffffffffffffffffffffffffffffffffff161415610453576040517f08c379a000000000000000000000000000000000000000000000000000000000815260040161044a906109fa565b60405180910390fd5b600260008373ffffffffffffffffffffffffffffffffffffffff1673ffffffffffffffffffffffffffffffffffffffff168152602001908152602001600020549050919050565b816001600083815260200190815260200160002060006101000a81548173ffffffffffffffffffffffffffffffffffffffff021916908373ffffffffffffffffffffffffffffffffffffffff1602179055506001600260008573ffffffffffffffffffffffffffffffffffffffff1673ffffffffffffffffffffffffffffffffffffffff168152602001908152602001600020600082825461053c9190610b1c565b925050819055506001600260008473ffffffffffffffffffffffffffffffffffffffff1673ffffffffffffffffffffffffffffffffffffffff16815260200190815260200160002060008282546105939190610ac6565b92505081905550600073ffffffffffffffffffffffffffffffffffffffff168273ffffffffffffffffffffffffffffffffffffffff16141561060a576040517f08c379a000000000000000000000000000000000000000000000000000000000815260040161060190610a5a565b60405180910390fd5b808273ffffffffffffffffffffffffffffffffffffffff168473ffffffffffffffffffffffffffffffffffffffff167fddf252ad1be2c89b69c2b068fc378daa952ba7f163c4a11628f55a4df523b3ef60405160405180910390a4505050565b6000806001600084815260200190815260200160002060009054906101000a900473ffffffffffffffffffffffffffffffffffffffff169050600073ffffffffffffffffffffffffffffffffffffffff168173ffffffffffffffffffffffffffffffffffffffff161415915050919050565b6000813590506106eb81610bf3565b92915050565b60008135905061070081610c0a565b92915050565b60008135905061071581610c21565b92915050565b60006020828403121561072d57600080fd5b600061073b848285016106dc565b91505092915050565b60008060006060848603121561075957600080fd5b6000610767868287016106dc565b9350506020610778868287016106dc565b925050604061078986828701610706565b9150509250925092565b6000602082840312156107a557600080fd5b60006107b3848285016106f1565b91505092915050565b6000602082840312156107ce57600080fd5b60006107dc84828501610706565b91505092915050565b6107ee81610b50565b82525050565b6107fd81610b62565b82525050565b6000610810602283610ab5565b91507f4f776e657220717565727920666f72206e6f6e206578697374656e7420746f6b60008301527f656e0000000000000000000000000000000000000000000000000000000000006020830152604082019050919050565b6000610876602283610ab5565b91507f4f776e657220717565727920666f72206e6f6e206578697874656e7420746f6b60008301527f656e0000000000000000000000000000000000000000000000000000000000006020830152604082019050919050565b60006108dc601283610ab5565b91507f546f6b656e206973206e6f742076616c696400000000000000000000000000006000830152602082019050919050565b600061091c602983610ab5565b91507f4572726f7220455243373231205472616e73666572206164647265737320697360008301527f206e6f74207a65726f00000000000000000000000000000000000000000000006020830152604082019050919050565b6000610982601883610ab5565b91507f45524331363520696e76616c696420696e7465726661636500000000000000006000830152602082019050919050565b6109be81610bba565b82525050565b60006020820190506109d960008301846107e5565b92915050565b60006020820190506109f460008301846107f4565b92915050565b60006020820190508181036000830152610a1381610803565b9050919050565b60006020820190508181036000830152610a3381610869565b9050919050565b60006020820190508181036000830152610a53816108cf565b9050919050565b60006020820190508181036000830152610a738161090f565b9050919050565b60006020820190508181036000830152610a9381610975565b9050919050565b6000602082019050610aaf60008301846109b5565b92915050565b600082825260208201905092915050565b6000610ad182610bba565b9150610adc83610bba565b9250827fffffffffffffffffffffffffffffffffffffffffffffffffffffffffffffffff03821115610b1157610b10610bc4565b5b828201905092915050565b6000610b2782610bba565b9150610b3283610bba565b925082821015610b4557610b44610bc4565b5b828203905092915050565b6000610b5b82610b9a565b9050919050565b60008115159050919050565b60007fffffffff0000000000000000000000000000000000000000000000000000000082169050919050565b600073ffffffffffffffffffffffffffffffffffffffff82169050919050565b6000819050919050565b7f4e487b7100000000000000000000000000000000000000000000000000000000600052601160045260246000fd5b610bfc81610b50565b8114610c0757600080fd5b50565b610c1381610b6e565b8114610c1e57600080fd5b50565b610c2a81610bba565b8114610c3557600080fd5b5056fea2646970667358221220f005a8146c68ecc1bec805af7c5a2e8b626413333c5081a8f7315076d59f53b064736f6c63430008000033",
  "immutableReferences": {},
  "source": "// SPDX-License-Identifier: MIT\r\npragma solidity ^0.8.0;\r\n\r\nimport \"./ERC165.sol\";\r\nimport \"./interfaces/IERC721.sol\";\r\n\r\ncontract ERC721 is ERC165, IERC721 {\r\n    mapping(uint256 => address) private _tokenOwner;\r\n    mapping(address => uint256) private _ownedTokensCount;\r\n    mapping(uint256 => address) private _tokenApprovals;\r\n\r\n    constructor() {\r\n        _registerInterface(\r\n            bytes4(\r\n                keccak256(\"balanceOf(bytes4)\") ^\r\n                    keccak256(\"ownerOf(bytes4)\") ^\r\n                    keccak256(\"transferFrom(bytes4)\")\r\n            )\r\n        );\r\n    }\r\n\r\n    function balanceOf(address _owner) public view override returns (uint256) {\r\n        require(_owner != address(0), \"Owner query for non existent token\");\r\n        return _ownedTokensCount[_owner];\r\n    }\r\n\r\n    function ownerOf(uint256 _tokenId) public view override returns (address) {\r\n        address owner = _tokenOwner[_tokenId];\r\n        require(owner != address(0), \"Owner query for non exixtent token\");\r\n        return owner;\r\n    }\r\n\r\n    function _exists(uint256 tokenId) internal view returns (bool) {\r\n        address owner = _tokenOwner[tokenId];\r\n        return owner != address(0);\r\n    }\r\n\r\n    function exists(uint256 tokenId) public view returns (address) {\r\n        require(_exists(tokenId), \"Token is not valid\");\r\n        return _tokenOwner[tokenId];\r\n    }\r\n\r\n    function _mint(address to, uint256 tokenId) internal virtual {\r\n        require(to != address(0), \"ERC721: minting to the 0 address\");\r\n        require(!_exists(tokenId), \"ERC721: token already minted\");\r\n        _tokenOwner[tokenId] = to;\r\n        _ownedTokensCount[to] += 1;\r\n\r\n        emit Transfer(address(0), to, tokenId);\r\n    }\r\n\r\n    function _transferFrom(\r\n        address _from,\r\n        address _to,\r\n        uint256 _tokenId\r\n    ) internal {\r\n        _tokenOwner[_tokenId] = _to;\r\n        _ownedTokensCount[_from] -= 1;\r\n        _ownedTokensCount[_to] += 1;\r\n        require(_to != address(0), \"Error ERC721 Transfer address is not zero\");\r\n        // require(\r\n        //     ownerOf(_tokenId) == _from,\r\n        //     \"Trying to transfer token address does not own\"\r\n        // );\r\n        emit Transfer(_from, _to, _tokenId);\r\n    }\r\n\r\n    function transferFrom(\r\n        address _from,\r\n        address _to,\r\n        uint256 _tokenId\r\n    ) public override {\r\n        // require(isApprovedOrOwner(msg.sender, _tokenId), \"Approval failed\");\r\n        _transferFrom(_from, _to, _tokenId);\r\n    }\r\n\r\n    // function approve(address _to, uint256 tokenId) public override {\r\n    //     address owner = ownerOf(tokenId);\r\n    //     require(_to != owner, \"Error! -approval to current owner\");\r\n    //     require(msg.sender == owner, \"Current caller is not an owner\");\r\n    //     _tokenApprovals[tokenId] = _to;\r\n    //     emit Approval(owner, _to, tokenId);\r\n    // }\r\n\r\n    // function isApprovedOrOwner(address spender, uint256 tokenId)\r\n    //     internal\r\n    //     view\r\n    //     returns (bool)\r\n    // {\r\n    //     require(_exists(tokenId), \"token does not exist\");\r\n    //     address owner = ownerOf(tokenId);\r\n    //     return (spender == owner);\r\n    // }\r\n}\r\n",
  "sourcePath": "C:\\Users\\oliva\\code-local\\nft-flowers-ui\\src\\backend\\contracts\\ERC721.sol",
  "compiler": {
    "name": "solc",
    "version": "0.8.0+commit.c7dfd78e.Emscripten.clang"
  },
  "schemaVersion": "3.4.3",
  "updatedAt": "2022-01-08T23:14:29.992Z",
  "devdoc": {
    "kind": "dev",
    "methods": {
      "balanceOf(address)": {
        "details": "NFTs assigned to the zero address are considered invalid, and this  function throws for queries about the zero address.",
        "params": {
          "_owner": "An address for whom to query the balance"
        },
        "returns": {
          "_0": "The number of NFTs owned by `_owner`, possibly zero"
        }
      },
      "ownerOf(uint256)": {
        "details": "NFTs assigned to zero address are considered invalid, and queries  about them do throw.",
        "params": {
          "_tokenId": "The identifier for an NFT"
        },
        "returns": {
          "_0": "The address of the owner of the NFT"
        }
      },
      "transferFrom(address,address,uint256)": {
        "details": "Throws unless `msg.sender` is the current owner, an authorized  operator, or the approved address for this NFT. Throws if `_from` is  not the current owner. Throws if `_to` is the zero address. Throws if  `_tokenId` is not a valid NFT.",
        "params": {
          "_from": "The current owner of the NFT",
          "_to": "The new owner",
          "_tokenId": "The NFT to transfer"
        }
      }
    },
    "version": 1
  },
  "userdoc": {
    "kind": "user",
    "methods": {
      "balanceOf(address)": {
        "notice": "Count all NFTs assigned to an owner"
      },
      "ownerOf(uint256)": {
        "notice": "Find the owner of an NFT"
      },
      "transferFrom(address,address,uint256)": {
        "notice": "Transfer ownership of an NFT -- THE CALLER IS RESPONSIBLE  TO CONFIRM THAT `_to` IS CAPABLE OF RECEIVING NFTS OR ELSE  THEY MAY BE PERMANENTLY LOST"
      }
    },
    "version": 1
  }
}