{
  "contractName": "KryptoFlow",
  "abi": [
    {
      "inputs": [],
      "stateMutability": "nonpayable",
      "type": "constructor"
    },
    {
      "anonymous": false,
      "inputs": [
        {
          "indexed": true,
          "internalType": "address",
          "name": "_owner",
          "type": "address"
        },
        {
          "indexed": true,
          "internalType": "address",
          "name": "_approved",
          "type": "address"
        },
        {
          "indexed": true,
          "internalType": "uint256",
          "name": "_tokenId",
          "type": "uint256"
        }
      ],
      "name": "Approval",
      "type": "event"
    },
    {
      "anonymous": false,
      "inputs": [
        {
          "indexed": true,
          "internalType": "address",
          "name": "_owner",
          "type": "address"
        },
        {
          "indexed": true,
          "internalType": "address",
          "name": "_operator",
          "type": "address"
        },
        {
          "indexed": false,
          "internalType": "bool",
          "name": "_approved",
          "type": "bool"
        }
      ],
      "name": "ApprovalForAll",
      "type": "event"
    },
    {
      "anonymous": false,
      "inputs": [
        {
          "indexed": true,
          "internalType": "address",
          "name": "_from",
          "type": "address"
        },
        {
          "indexed": true,
          "internalType": "address",
          "name": "_to",
          "type": "address"
        },
        {
          "indexed": true,
          "internalType": "uint256",
          "name": "_tokenId",
          "type": "uint256"
        }
      ],
      "name": "Transfer",
      "type": "event"
    },
    {
      "inputs": [
        {
          "internalType": "uint256",
          "name": "",
          "type": "uint256"
        }
      ],
      "name": "KryptoFlowz",
      "outputs": [
        {
          "internalType": "string",
          "name": "",
          "type": "string"
        }
      ],
      "stateMutability": "view",
      "type": "function",
      "constant": true
    },
    {
      "inputs": [
        {
          "internalType": "bytes4",
          "name": "interfaceId",
          "type": "bytes4"
        }
      ],
      "name": "_registerInterface",
      "outputs": [],
      "stateMutability": "nonpayable",
      "type": "function"
    },
    {
      "inputs": [
        {
          "internalType": "address",
          "name": "_owner",
          "type": "address"
        }
      ],
      "name": "balanceOf",
      "outputs": [
        {
          "internalType": "uint256",
          "name": "",
          "type": "uint256"
        }
      ],
      "stateMutability": "view",
      "type": "function",
      "constant": true
    },
    {
      "inputs": [
        {
          "internalType": "uint256",
          "name": "tokenId",
          "type": "uint256"
        }
      ],
      "name": "exists",
      "outputs": [
        {
          "internalType": "address",
          "name": "",
          "type": "address"
        }
      ],
      "stateMutability": "view",
      "type": "function",
      "constant": true
    },
    {
      "inputs": [],
      "name": "name",
      "outputs": [
        {
          "internalType": "string",
          "name": "",
          "type": "string"
        }
      ],
      "stateMutability": "view",
      "type": "function",
      "constant": true
    },
    {
      "inputs": [
        {
          "internalType": "uint256",
          "name": "_tokenId",
          "type": "uint256"
        }
      ],
      "name": "ownerOf",
      "outputs": [
        {
          "internalType": "address",
          "name": "",
          "type": "address"
        }
      ],
      "stateMutability": "view",
      "type": "function",
      "constant": true
    },
    {
      "inputs": [
        {
          "internalType": "bytes4",
          "name": "interfaceId",
          "type": "bytes4"
        }
      ],
      "name": "supportsInterface",
      "outputs": [
        {
          "internalType": "bool",
          "name": "",
          "type": "bool"
        }
      ],
      "stateMutability": "view",
      "type": "function",
      "constant": true
    },
    {
      "inputs": [],
      "name": "symbol",
      "outputs": [
        {
          "internalType": "string",
          "name": "",
          "type": "string"
        }
      ],
      "stateMutability": "view",
      "type": "function",
      "constant": true
    },
    {
      "inputs": [
        {
          "internalType": "uint256",
          "name": "index",
          "type": "uint256"
        }
      ],
      "name": "tokenByIndex",
      "outputs": [
        {
          "internalType": "uint256",
          "name": "",
          "type": "uint256"
        }
      ],
      "stateMutability": "view",
      "type": "function",
      "constant": true
    },
    {
      "inputs": [
        {
          "internalType": "address",
          "name": "owner",
          "type": "address"
        },
        {
          "internalType": "uint256",
          "name": "index",
          "type": "uint256"
        }
      ],
      "name": "tokenOfOwnerByIndex",
      "outputs": [
        {
          "internalType": "uint256",
          "name": "",
          "type": "uint256"
        }
      ],
      "stateMutability": "view",
      "type": "function",
      "constant": true
    },
    {
      "inputs": [],
      "name": "totalSupply",
      "outputs": [
        {
          "internalType": "uint256",
          "name": "",
          "type": "uint256"
        }
      ],
      "stateMutability": "view",
      "type": "function",
      "constant": true
    },
    {
      "inputs": [
        {
          "internalType": "address",
          "name": "_from",
          "type": "address"
        },
        {
          "internalType": "address",
          "name": "_to",
          "type": "address"
        },
        {
          "internalType": "uint256",
          "name": "_tokenId",
          "type": "uint256"
        }
      ],
      "name": "transferFrom",
      "outputs": [],
      "stateMutability": "nonpayable",
      "type": "function"
    },
    {
      "inputs": [
        {
          "internalType": "string",
          "name": "_kryptoFlow",
          "type": "string"
        }
      ],
      "name": "mint",
      "outputs": [],
      "stateMutability": "nonpayable",
      "type": "function"
    }
  ],
  "bytecode": "0x60806040523480156200001157600080fd5b506040518060400160405280600a81526020017f4b727970746f466c6f77000000000000000000000000000000000000000000008152506040518060400160405280600681526020017f4b50464c575300000000000000000000000000000000000000000000000000008152508181620000b17f01ffc9a7a5cef8baa21ed3c5c0d7e23accb804b619e9333b597f47a0d84076e26200022a60201b60201c565b620001047f13b182f4c0e5b2efbac0efe6cf6d756c8b89f4b79c5707a043ed9ea740574ee97f7feaf19471f34a12a7eaf32d5f3090aa2260ea8624dc8a138e74e0bf0f623076186200022a60201b60201c565b81600190805190602001906200011c92919062000302565b5080600290805190602001906200013592919062000302565b505050620001ad7f22c82707ba960a14c7592ffb6b8cfaa073fed0048a84cc7fa41f6b5bd8e7f2e47f3a6eb71757dfc6e784c1459d26270140c2c147d95ca985c80026fc5301c3eca17f8a7e378434598edc36d108689a030cbc9d7d465de4f74c71bae1028eed6a881b18186200022a60201b60201c565b620002227f8230223f691b981717299fae9549350a0d894555723531f02108b1f522c1a7977f6da5e1284143cdd2d15038a59bde3be031250f00291d64494c12d967b3a4e0c37fc53637662700e6c65104059db8bba34439e0c32483ab7c34e3ccae52c739549518186200022a60201b60201c565b50506200048c565b63ffffffff60e01b817bffffffffffffffffffffffffffffffffffffffffffffffffffffffff1916141562000296576040517f08c379a00000000000000000000000000000000000000000000000000000000081526004016200028d90620003f4565b60405180910390fd5b6001600080837bffffffffffffffffffffffffffffffffffffffffffffffffffffffff19167bffffffffffffffffffffffffffffffffffffffffffffffffffffffff1916815260200190815260200160002060006101000a81548160ff02191690831515021790555050565b828054620003109062000427565b90600052602060002090601f01602090048101928262000334576000855562000380565b82601f106200034f57805160ff191683800117855562000380565b8280016001018555821562000380579182015b828111156200037f57825182559160200191906001019062000362565b5b5090506200038f919062000393565b5090565b5b80821115620003ae57600081600090555060010162000394565b5090565b6000620003c160188362000416565b91507f45524331363520696e76616c696420696e7465726661636500000000000000006000830152602082019050919050565b600060208201905081810360008301526200040f81620003b2565b9050919050565b600082825260208201905092915050565b600060028204905060018216806200044057607f821691505b602082108114156200045757620004566200045d565b5b50919050565b7f4e487b7100000000000000000000000000000000000000000000000000000000600052602260045260246000fd5b611aa9806200049c6000396000f3fe608060405234801561001057600080fd5b50600436106100cf5760003560e01c80634f558e791161008c57806370a082311161006657806370a082311461023857806395d89b4114610268578063b4e2663514610286578063d85d3d27146102b6576100cf565b80634f558e79146101a85780634f6ccce7146101d85780636352211e14610208576100cf565b806301ffc9a7146100d4578063068417d91461010457806306fdde031461012057806318160ddd1461013e57806323b872dd1461015c5780632f745c5914610178575b600080fd5b6100ee60048036038101906100e9919061118a565b6102d2565b6040516100fb91906115fe565b60405180910390f35b61011e6004803603810190610119919061118a565b610339565b005b61012861040e565b6040516101359190611619565b60405180910390f35b6101466104a0565b604051610153919061177b565b60405180910390f35b610176600480360381019061017191906110ff565b6104ad565b005b610192600480360381019061018d919061114e565b6104bd565b60405161019f919061177b565b60405180910390f35b6101c260048036038101906101bd91906111f4565b610593565b6040516101cf91906115e3565b60405180910390f35b6101f260048036038101906101ed91906111f4565b610618565b6040516101ff919061177b565b60405180910390f35b610222600480360381019061021d91906111f4565b6106af565b60405161022f91906115e3565b60405180910390f35b610252600480360381019061024d91906110d6565b610761565b60405161025f919061177b565b60405180910390f35b610270610819565b60405161027d9190611619565b60405180910390f35b6102a0600480360381019061029b91906111f4565b6108ab565b6040516102ad9190611619565b60405180910390f35b6102d060048036038101906102cb91906111b3565b610957565b005b6000806000837bffffffffffffffffffffffffffffffffffffffffffffffffffffffff19167bffffffffffffffffffffffffffffffffffffffffffffffffffffffff1916815260200190815260200160002060009054906101000a900460ff169050919050565b63ffffffff60e01b817bffffffffffffffffffffffffffffffffffffffffffffffffffffffff191614156103a2576040517f08c379a00000000000000000000000000000000000000000000000000000000081526004016103999061173b565b60405180910390fd5b6001600080837bffffffffffffffffffffffffffffffffffffffffffffffffffffffff19167bffffffffffffffffffffffffffffffffffffffffffffffffffffffff1916815260200190815260200160002060006101000a81548160ff02191690831515021790555050565b60606001805461041d9061195e565b80601f01602080910402602001604051908101604052809291908181526020018280546104499061195e565b80156104965780601f1061046b57610100808354040283529160200191610496565b820191906000526020600020905b81548152906001019060200180831161047957829003601f168201915b5050505050905090565b6000600980549050905090565b6104b8838383610a5a565b505050565b60006104c883610761565b8210610509576040517f08c379a00000000000000000000000000000000000000000000000000000000081526004016105009061175b565b60405180910390fd5b600760008473ffffffffffffffffffffffffffffffffffffffff1673ffffffffffffffffffffffffffffffffffffffff1681526020019081526020016000208281548110610580577f4e487b7100000000000000000000000000000000000000000000000000000000600052603260045260246000fd5b9060005260206000200154905092915050565b600061059e82610c2a565b6105dd576040517f08c379a00000000000000000000000000000000000000000000000000000000081526004016105d4906116fb565b60405180910390fd5b6003600083815260200190815260200160002060009054906101000a900473ffffffffffffffffffffffffffffffffffffffff169050919050565b60006106226104a0565b8210610663576040517f08c379a000000000000000000000000000000000000000000000000000000000815260040161065a9061169b565b60405180910390fd5b6009828154811061069d577f4e487b7100000000000000000000000000000000000000000000000000000000600052603260045260246000fd5b90600052602060002001549050919050565b6000806003600084815260200190815260200160002060009054906101000a900473ffffffffffffffffffffffffffffffffffffffff169050600073ffffffffffffffffffffffffffffffffffffffff168173ffffffffffffffffffffffffffffffffffffffff161415610758576040517f08c379a000000000000000000000000000000000000000000000000000000000815260040161074f906116bb565b60405180910390fd5b80915050919050565b60008073ffffffffffffffffffffffffffffffffffffffff168273ffffffffffffffffffffffffffffffffffffffff1614156107d2576040517f08c379a00000000000000000000000000000000000000000000000000000000081526004016107c99061165b565b60405180910390fd5b600460008373ffffffffffffffffffffffffffffffffffffffff1673ffffffffffffffffffffffffffffffffffffffff168152602001908152602001600020549050919050565b6060600280546108289061195e565b80601f01602080910402602001604051908101604052809291908181526020018280546108549061195e565b80156108a15780601f10610876576101008083540402835291602001916108a1565b820191906000526020600020905b81548152906001019060200180831161088457829003601f168201915b5050505050905090565b600a81815481106108bb57600080fd5b9060005260206000200160009150905080546108d69061195e565b80601f01602080910402602001604051908101604052809291908181526020018280546109029061195e565b801561094f5780601f106109245761010080835404028352916020019161094f565b820191906000526020600020905b81548152906001019060200180831161093257829003601f168201915b505050505081565b600b8160405161096791906115cc565b908152602001604051809103902060009054906101000a900460ff16156109c3576040517f08c379a00000000000000000000000000000000000000000000000000000000081526004016109ba9061163b565b60405180910390fd5b600a819080600181540180825580915050600190039060005260206000200160009091909190915090805190602001906109fe929190610f8c565b5060006001600a80549050610a139190611874565b9050610a1f3382610c9c565b6001600b83604051610a3191906115cc565b908152602001604051809103902060006101000a81548160ff0219169083151502179055505050565b816003600083815260200190815260200160002060006101000a81548173ffffffffffffffffffffffffffffffffffffffff021916908373ffffffffffffffffffffffffffffffffffffffff1602179055506001600460008573ffffffffffffffffffffffffffffffffffffffff1673ffffffffffffffffffffffffffffffffffffffff1681526020019081526020016000206000828254610afc9190611874565b925050819055506001600460008473ffffffffffffffffffffffffffffffffffffffff1673ffffffffffffffffffffffffffffffffffffffff1681526020019081526020016000206000828254610b53919061181e565b92505081905550600073ffffffffffffffffffffffffffffffffffffffff168273ffffffffffffffffffffffffffffffffffffffff161415610bca576040517f08c379a0000000000000000000000000000000000000000000000000000000008152600401610bc19061171b565b60405180910390fd5b808273ffffffffffffffffffffffffffffffffffffffff168473ffffffffffffffffffffffffffffffffffffffff167fddf252ad1be2c89b69c2b068fc378daa952ba7f163c4a11628f55a4df523b3ef60405160405180910390a4505050565b6000806003600084815260200190815260200160002060009054906101000a900473ffffffffffffffffffffffffffffffffffffffff169050600073ffffffffffffffffffffffffffffffffffffffff168173ffffffffffffffffffffffffffffffffffffffff161415915050919050565b610ca68282610cbd565b610caf81610e7f565b610cb98183610ec8565b5050565b600073ffffffffffffffffffffffffffffffffffffffff168273ffffffffffffffffffffffffffffffffffffffff161415610d2d576040517f08c379a0000000000000000000000000000000000000000000000000000000008152600401610d24906116db565b60405180910390fd5b610d3681610c2a565b15610d76576040517f08c379a0000000000000000000000000000000000000000000000000000000008152600401610d6d9061167b565b60405180910390fd5b816003600083815260200190815260200160002060006101000a81548173ffffffffffffffffffffffffffffffffffffffff021916908373ffffffffffffffffffffffffffffffffffffffff1602179055506001600460008473ffffffffffffffffffffffffffffffffffffffff1673ffffffffffffffffffffffffffffffffffffffff1681526020019081526020016000206000828254610e18919061181e565b92505081905550808273ffffffffffffffffffffffffffffffffffffffff16600073ffffffffffffffffffffffffffffffffffffffff167fddf252ad1be2c89b69c2b068fc378daa952ba7f163c4a11628f55a4df523b3ef60405160405180910390a45050565b6009805490506006600083815260200190815260200160002081905550600981908060018154018082558091505060019003906000526020600020016000909190919091505550565b600760008273ffffffffffffffffffffffffffffffffffffffff1673ffffffffffffffffffffffffffffffffffffffff168152602001908152602001600020805490506006600084815260200190815260200160002081905550600760008273ffffffffffffffffffffffffffffffffffffffff1673ffffffffffffffffffffffffffffffffffffffff1681526020019081526020016000208290806001815401808255809150506001900390600052602060002001600090919091909150555050565b828054610f989061195e565b90600052602060002090601f016020900481019282610fba5760008555611001565b82601f10610fd357805160ff1916838001178555611001565b82800160010185558215611001579182015b82811115611000578251825591602001919060010190610fe5565b5b50905061100e9190611012565b5090565b5b8082111561102b576000816000905550600101611013565b5090565b600061104261103d846117c7565b611796565b90508281526020810184848401111561105a57600080fd5b61106584828561191c565b509392505050565b60008135905061107c81611a2e565b92915050565b60008135905061109181611a45565b92915050565b600082601f8301126110a857600080fd5b81356110b884826020860161102f565b91505092915050565b6000813590506110d081611a5c565b92915050565b6000602082840312156110e857600080fd5b60006110f68482850161106d565b91505092915050565b60008060006060848603121561111457600080fd5b60006111228682870161106d565b93505060206111338682870161106d565b9250506040611144868287016110c1565b9150509250925092565b6000806040838503121561116157600080fd5b600061116f8582860161106d565b9250506020611180858286016110c1565b9150509250929050565b60006020828403121561119c57600080fd5b60006111aa84828501611082565b91505092915050565b6000602082840312156111c557600080fd5b600082013567ffffffffffffffff8111156111df57600080fd5b6111eb84828501611097565b91505092915050565b60006020828403121561120657600080fd5b6000611214848285016110c1565b91505092915050565b611226816118a8565b82525050565b611235816118ba565b82525050565b6000611246826117f7565b6112508185611802565b935061126081856020860161192b565b61126981611a1d565b840191505092915050565b600061127f826117f7565b6112898185611813565b935061129981856020860161192b565b80840191505092915050565b60006112b2602283611802565b91507f4572726f7221202d204b727970746f4269726420616c7265616479206578697360008301527f74210000000000000000000000000000000000000000000000000000000000006020830152604082019050919050565b6000611318602283611802565b91507f4f776e657220717565727920666f72206e6f6e206578697374656e7420746f6b60008301527f656e0000000000000000000000000000000000000000000000000000000000006020830152604082019050919050565b600061137e601c83611802565b91507f4552433732313a20746f6b656e20616c7265616479206d696e746564000000006000830152602082019050919050565b60006113be601a83611802565b91507f676c6f62616c20696e646578206f7574206f6620626f756e64730000000000006000830152602082019050919050565b60006113fe602283611802565b91507f4f776e657220717565727920666f72206e6f6e206578697874656e7420746f6b60008301527f656e0000000000000000000000000000000000000000000000000000000000006020830152604082019050919050565b6000611464602083611802565b91507f4552433732313a206d696e74696e6720746f20746865203020616464726573736000830152602082019050919050565b60006114a4601283611802565b91507f546f6b656e206973206e6f742076616c696400000000000000000000000000006000830152602082019050919050565b60006114e4602983611802565b91507f4572726f7220455243373231205472616e73666572206164647265737320697360008301527f206e6f74207a65726f00000000000000000000000000000000000000000000006020830152604082019050919050565b600061154a601883611802565b91507f45524331363520696e76616c696420696e7465726661636500000000000000006000830152602082019050919050565b600061158a601383611802565b91507f6f776e6572206f7574206f6620626f756e6473000000000000000000000000006000830152602082019050919050565b6115c681611912565b82525050565b60006115d88284611274565b915081905092915050565b60006020820190506115f8600083018461121d565b92915050565b6000602082019050611613600083018461122c565b92915050565b60006020820190508181036000830152611633818461123b565b905092915050565b60006020820190508181036000830152611654816112a5565b9050919050565b600060208201905081810360008301526116748161130b565b9050919050565b6000602082019050818103600083015261169481611371565b9050919050565b600060208201905081810360008301526116b4816113b1565b9050919050565b600060208201905081810360008301526116d4816113f1565b9050919050565b600060208201905081810360008301526116f481611457565b9050919050565b6000602082019050818103600083015261171481611497565b9050919050565b60006020820190508181036000830152611734816114d7565b9050919050565b600060208201905081810360008301526117548161153d565b9050919050565b600060208201905081810360008301526117748161157d565b9050919050565b600060208201905061179060008301846115bd565b92915050565b6000604051905081810181811067ffffffffffffffff821117156117bd576117bc6119ee565b5b8060405250919050565b600067ffffffffffffffff8211156117e2576117e16119ee565b5b601f19601f8301169050602081019050919050565b600081519050919050565b600082825260208201905092915050565b600081905092915050565b600061182982611912565b915061183483611912565b9250827fffffffffffffffffffffffffffffffffffffffffffffffffffffffffffffffff0382111561186957611868611990565b5b828201905092915050565b600061187f82611912565b915061188a83611912565b92508282101561189d5761189c611990565b5b828203905092915050565b60006118b3826118f2565b9050919050565b60008115159050919050565b60007fffffffff0000000000000000000000000000000000000000000000000000000082169050919050565b600073ffffffffffffffffffffffffffffffffffffffff82169050919050565b6000819050919050565b82818337600083830152505050565b60005b8381101561194957808201518184015260208101905061192e565b83811115611958576000848401525b50505050565b6000600282049050600182168061197657607f821691505b6020821081141561198a576119896119bf565b5b50919050565b7f4e487b7100000000000000000000000000000000000000000000000000000000600052601160045260246000fd5b7f4e487b7100000000000000000000000000000000000000000000000000000000600052602260045260246000fd5b7f4e487b7100000000000000000000000000000000000000000000000000000000600052604160045260246000fd5b6000601f19601f8301169050919050565b611a37816118a8565b8114611a4257600080fd5b50565b611a4e816118c6565b8114611a5957600080fd5b50565b611a6581611912565b8114611a7057600080fd5b5056fea2646970667358221220a7b7e690db73fb0d6778efa366b58b0c89fc9a3fa6bda6ff9839e1fc985ffb6164736f6c63430008000033",
  "immutableReferences": {},
  "source": "// SPDX-License-Identifier: MIT\r\npragma solidity ^0.8.0;\r\n\r\nimport \"./ERC721Connector.sol\";\r\n\r\ncontract KryptoFlow is ERC721Connector {\r\n    string[] public KryptoFlowz;\r\n    mapping(string => bool) _kryptoFlowzExists;\r\n\r\n    constructor() ERC721Connector(\"KryptoFlow\", \"KPFLWS\") {}\r\n\r\n    function mint(string memory _kryptoFlow) public {\r\n        require(\r\n            !_kryptoFlowzExists[_kryptoFlow],\r\n            \"Error! - KryptoBird already exist!\"\r\n        );\r\n        KryptoFlowz.push(_kryptoFlow);\r\n        uint256 _id = KryptoFlowz.length - 1;\r\n        _mint(msg.sender, _id);\r\n        _kryptoFlowzExists[_kryptoFlow] = true;\r\n    }\r\n}\r\n",
  "sourcePath": "C:\\Users\\oliva\\code-local\\nft-flowers-ui\\src\\backend\\contracts\\KryptoFlowz.sol",
  "compiler": {
    "name": "solc",
    "version": "0.8.0+commit.c7dfd78e.Emscripten.clang"
  },
  "schemaVersion": "3.4.3",
  "updatedAt": "2022-01-08T23:14:42.106Z",
  "networkType": "ethereum",
  "devdoc": {
    "kind": "dev",
    "methods": {
      "balanceOf(address)": {
        "details": "NFTs assigned to the zero address are considered invalid, and this  function throws for queries about the zero address.",
        "params": {
          "_owner": "An address for whom to query the balance"
        },
        "returns": {
          "_0": "The number of NFTs owned by `_owner`, possibly zero"
        }
      },
      "ownerOf(uint256)": {
        "details": "NFTs assigned to zero address are considered invalid, and queries  about them do throw.",
        "params": {
          "_tokenId": "The identifier for an NFT"
        },
        "returns": {
          "_0": "The address of the owner of the NFT"
        }
      },
      "totalSupply()": {
        "returns": {
          "_0": "A count of valid NFTs tracked by this contract, where each one of  them has an assigned and queryable owner not equal to the zero address"
        }
      },
      "transferFrom(address,address,uint256)": {
        "details": "Throws unless `msg.sender` is the current owner, an authorized  operator, or the approved address for this NFT. Throws if `_from` is  not the current owner. Throws if `_to` is the zero address. Throws if  `_tokenId` is not a valid NFT.",
        "params": {
          "_from": "The current owner of the NFT",
          "_to": "The new owner",
          "_tokenId": "The NFT to transfer"
        }
      }
    },
    "version": 1
  },
  "userdoc": {
    "kind": "user",
    "methods": {
      "balanceOf(address)": {
        "notice": "Count all NFTs assigned to an owner"
      },
      "name()": {
        "notice": "A descriptive name for a collection of NFTs in this contract"
      },
      "ownerOf(uint256)": {
        "notice": "Find the owner of an NFT"
      },
      "symbol()": {
        "notice": "An abbreviated name for NFTs in this contract"
      },
      "totalSupply()": {
        "notice": "Count NFTs tracked by this contract"
      },
      "transferFrom(address,address,uint256)": {
        "notice": "Transfer ownership of an NFT -- THE CALLER IS RESPONSIBLE  TO CONFIRM THAT `_to` IS CAPABLE OF RECEIVING NFTS OR ELSE  THEY MAY BE PERMANENTLY LOST"
      }
    },
    "version": 1
  }
}